{
  "_format": "hh-sol-artifact-1",
  "contractName": "SimpleStorage",
  "sourceName": "contracts/SimpleStorage.sol",
  "abi": [
    {
      "inputs": [
        {
          "internalType": "string",
          "name": "_name",
          "type": "string"
        },
        {
          "internalType": "uint256",
          "name": "_favoriteNumber",
          "type": "uint256"
        }
      ],
      "name": "addUser",
      "outputs": [],
      "stateMutability": "nonpayable",
      "type": "function"
    },
    {
      "inputs": [
        {
          "internalType": "string",
          "name": "",
          "type": "string"
        }
      ],
      "name": "nameToFavoriteNumber",
      "outputs": [
        {
          "internalType": "uint256",
          "name": "",
          "type": "uint256"
        }
      ],
      "stateMutability": "view",
      "type": "function"
    },
    {
      "inputs": [],
      "name": "person",
      "outputs": [
        {
          "internalType": "uint256",
          "name": "favoriteNumber",
          "type": "uint256"
        },
        {
          "internalType": "string",
          "name": "name",
          "type": "string"
        }
      ],
      "stateMutability": "view",
      "type": "function"
    },
    {
      "inputs": [
        {
          "internalType": "uint256",
          "name": "",
          "type": "uint256"
        }
      ],
      "name": "persons",
      "outputs": [
        {
          "internalType": "uint256",
          "name": "favoriteNumber",
          "type": "uint256"
        },
        {
          "internalType": "string",
          "name": "name",
          "type": "string"
        }
      ],
      "stateMutability": "view",
      "type": "function"
    },
    {
      "inputs": [],
      "name": "retrieve",
      "outputs": [
        {
          "internalType": "uint256",
          "name": "",
          "type": "uint256"
        }
      ],
      "stateMutability": "view",
      "type": "function"
    },
    {
      "inputs": [
        {
          "internalType": "uint256",
          "name": "_favoriteNumber",
          "type": "uint256"
        }
      ],
      "name": "store",
      "outputs": [],
      "stateMutability": "nonpayable",
      "type": "function"
    }
  ],
  "bytecode": "0x6080604052604051806040016040528061026d81526020016040518060400160405280600b81526020017f5368616b696c204b68616e000000000000000000000000000000000000000000815250815250600260008201518160000155602082015181600101908051906020019061007892919061008d565b50505034801561008757600080fd5b50610190565b8280546100999061015f565b90600052602060002090601f0160209004810192826100bb5760008555610102565b82601f106100d457805160ff1916838001178555610102565b82800160010185558215610102579182015b828111156101015782518255916020019190600101906100e6565b5b50905061010f9190610113565b5090565b5b8082111561012c576000816000905550600101610114565b5090565b7f4e487b7100000000000000000000000000000000000000000000000000000000600052602260045260246000fd5b6000600282049050600182168061017757607f821691505b60208210810361018a57610189610130565b5b50919050565b6108d68061019f6000396000f3fe608060405234801561001057600080fd5b50600436106100625760003560e01c80631c5220c2146100675780632e64cec1146100835780636057361d146100a157806377ec2b55146100bd5780638bab8dd5146100dc578063a2f9eac61461010c575b600080fd5b610081600480360381019061007c91906104fe565b61013d565b005b61008b610214565b604051610098919061056d565b60405180910390f35b6100bb60048036038101906100b69190610588565b61021e565b005b6100c5610228565b6040516100d392919061064e565b60405180910390f35b6100f660048036038101906100f191906107ae565b6102c2565b604051610103919061056d565b60405180910390f35b61012660048036038101906101219190610588565b6102f0565b60405161013492919061064e565b60405180910390f35b6004604051806040016040528083815260200185858080601f016020809104026020016040519081016040528093929190818152602001838380828437600081840152601f19601f8201169050808301925050505050505081525090806001815401808255809150506001900390600052602060002090600202016000909190919091506000820151816000015560208201518160010190805190602001906101e79291906103ac565b50505080600084846040516101fd929190610827565b908152602001604051809103902081905550505050565b6000600154905090565b8060018190555050565b600280600001549080600101805461023f9061086f565b80601f016020809104026020016040519081016040528092919081815260200182805461026b9061086f565b80156102b85780601f1061028d576101008083540402835291602001916102b8565b820191906000526020600020905b81548152906001019060200180831161029b57829003601f168201915b5050505050905082565b6000818051602081018201805184825260208301602085012081835280955050505050506000915090505481565b6004818154811061030057600080fd5b90600052602060002090600202016000915090508060000154908060010180546103299061086f565b80601f01602080910402602001604051908101604052809291908181526020018280546103559061086f565b80156103a25780601f10610377576101008083540402835291602001916103a2565b820191906000526020600020905b81548152906001019060200180831161038557829003601f168201915b5050505050905082565b8280546103b89061086f565b90600052602060002090601f0160209004810192826103da5760008555610421565b82601f106103f357805160ff1916838001178555610421565b82800160010185558215610421579182015b82811115610420578251825591602001919060010190610405565b5b50905061042e9190610432565b5090565b5b8082111561044b576000816000905550600101610433565b5090565b6000604051905090565b600080fd5b600080fd5b600080fd5b600080fd5b600080fd5b60008083601f84011261048857610487610463565b5b8235905067ffffffffffffffff8111156104a5576104a4610468565b5b6020830191508360018202830111156104c1576104c061046d565b5b9250929050565b6000819050919050565b6104db816104c8565b81146104e657600080fd5b50565b6000813590506104f8816104d2565b92915050565b60008060006040848603121561051757610516610459565b5b600084013567ffffffffffffffff8111156105355761053461045e565b5b61054186828701610472565b93509350506020610554868287016104e9565b9150509250925092565b610567816104c8565b82525050565b6000602082019050610582600083018461055e565b92915050565b60006020828403121561059e5761059d610459565b5b60006105ac848285016104e9565b91505092915050565b600081519050919050565b600082825260208201905092915050565b60005b838110156105ef5780820151818401526020810190506105d4565b838111156105fe576000848401525b50505050565b6000601f19601f8301169050919050565b6000610620826105b5565b61062a81856105c0565b935061063a8185602086016105d1565b61064381610604565b840191505092915050565b6000604082019050610663600083018561055e565b81810360208301526106758184610615565b90509392505050565b600080fd5b7f4e487b7100000000000000000000000000000000000000000000000000000000600052604160045260246000fd5b6106bb82610604565b810181811067ffffffffffffffff821117156106da576106d9610683565b5b80604052505050565b60006106ed61044f565b90506106f982826106b2565b919050565b600067ffffffffffffffff82111561071957610718610683565b5b61072282610604565b9050602081019050919050565b82818337600083830152505050565b600061075161074c846106fe565b6106e3565b90508281526020810184848401111561076d5761076c61067e565b5b61077884828561072f565b509392505050565b600082601f83011261079557610794610463565b5b81356107a584826020860161073e565b91505092915050565b6000602082840312156107c4576107c3610459565b5b600082013567ffffffffffffffff8111156107e2576107e161045e565b5b6107ee84828501610780565b91505092915050565b600081905092915050565b600061080e83856107f7565b935061081b83858461072f565b82840190509392505050565b6000610834828486610802565b91508190509392505050565b7f4e487b7100000000000000000000000000000000000000000000000000000000600052602260045260246000fd5b6000600282049050600182168061088757607f821691505b60208210810361089a57610899610840565b5b5091905056fea2646970667358221220523b117138cb54630571b0d9d8ddac381c251b4570e58034517808c78b0c355e64736f6c634300080d0033",
  "linkReferences": {},
  "deployedLinkReferences": {}
}