{
  "_format": "hh-sol-artifact-1",
  "contractName": "SimpleStorage",
  "sourceName": "contracts/SimpleStorage.sol",
  "abi": [
    {
      "inputs": [
        {
          "internalType": "string",
          "name": "_name",
          "type": "string"
        },
        {
          "internalType": "uint256",
          "name": "_favoriteNumber",
          "type": "uint256"
        }
      ],
      "name": "addUser",
      "outputs": [],
      "stateMutability": "nonpayable",
      "type": "function"
    },
    {
      "inputs": [
        {
          "internalType": "string",
          "name": "",
          "type": "string"
        }
      ],
      "name": "nameToFavoriteNumber",
      "outputs": [
        {
          "internalType": "uint256",
          "name": "",
          "type": "uint256"
        }
      ],
      "stateMutability": "view",
      "type": "function"
    },
    {
      "inputs": [],
      "name": "person",
      "outputs": [
        {
          "internalType": "uint256",
          "name": "favoriteNumber",
          "type": "uint256"
        },
        {
          "internalType": "string",
          "name": "name",
          "type": "string"
        }
      ],
      "stateMutability": "view",
      "type": "function"
    },
    {
      "inputs": [
        {
          "internalType": "uint256",
          "name": "",
          "type": "uint256"
        }
      ],
      "name": "persons",
      "outputs": [
        {
          "internalType": "uint256",
          "name": "favoriteNumber",
          "type": "uint256"
        },
        {
          "internalType": "string",
          "name": "name",
          "type": "string"
        }
      ],
      "stateMutability": "view",
      "type": "function"
    },
    {
      "inputs": [],
      "name": "retrieve",
      "outputs": [
        {
          "internalType": "uint256",
          "name": "",
          "type": "uint256"
        }
      ],
      "stateMutability": "view",
      "type": "function"
    },
    {
      "inputs": [
        {
          "internalType": "uint256",
          "name": "_favoriteNumber",
          "type": "uint256"
        }
      ],
      "name": "store",
      "outputs": [],
      "stateMutability": "nonpayable",
      "type": "function"
    }
  ],
  "bytecode": "0x6080604052604051806040016040528061026d81526020016040518060400160405280600b81526020017f5368616b696c204b68616e000000000000000000000000000000000000000000815250815250600260008201518160000155602082015181600101908051906020019061007892919061008d565b50505034801561008757600080fd5b50610190565b8280546100999061015f565b90600052602060002090601f0160209004810192826100bb5760008555610102565b82601f106100d457805160ff1916838001178555610102565b82800160010185558215610102579182015b828111156101015782518255916020019190600101906100e6565b5b50905061010f9190610113565b5090565b5b8082111561012c576000816000905550600101610114565b5090565b7f4e487b7100000000000000000000000000000000000000000000000000000000600052602260045260246000fd5b6000600282049050600182168061017757607f821691505b60208210810361018a57610189610130565b5b50919050565b61098d8061019f6000396000f3fe608060405234801561001057600080fd5b50600436106100625760003560e01c80631c5220c2146100675780632e64cec1146100835780636057361d146100a157806377ec2b55146100bd5780638bab8dd5146100dc578063a2f9eac61461010c575b600080fd5b610081600480360381019061007c91906105b5565b61013d565b005b61008b610264565b6040516100989190610624565b60405180910390f35b6100bb60048036038101906100b6919061063f565b6102aa565b005b6100c56102dc565b6040516100d3929190610705565b60405180910390f35b6100f660048036038101906100f19190610865565b610376565b6040516101039190610624565b60405180910390f35b6101266004803603810190610121919061063f565b6103a4565b604051610134929190610705565b60405180910390f35b610151674bfe3f3167401ddc60c01b610460565b610165678bc3350633bbb2dc60c01b610460565b610179674fd5d83bba9e5e1660c01b610460565b6004604051806040016040528083815260200185858080601f016020809104026020016040519081016040528093929190818152602001838380828437600081840152601f19601f820116905080830192505050505050508152509080600181540180825580915050600190039060005260206000209060020201600090919091909150600082015181600001556020820151816001019080519060200190610223929190610463565b50505061023a672c50003b0350555560c01b610460565b806000848460405161024d9291906108de565b908152602001604051809103902081905550505050565b600061027a676494e64a81f7b74960c01b610460565b61028e67bb0b0e2a2a110a1e60c01b610460565b6102a267590c7912f465617e60c01b610460565b600154905090565b6102be674996fc257a1ebb4d60c01b610460565b6102d267a2febc555692e2c660c01b610460565b8060018190555050565b60028060000154908060010180546102f390610926565b80601f016020809104026020016040519081016040528092919081815260200182805461031f90610926565b801561036c5780601f106103415761010080835404028352916020019161036c565b820191906000526020600020905b81548152906001019060200180831161034f57829003601f168201915b5050505050905082565b6000818051602081018201805184825260208301602085012081835280955050505050506000915090505481565b600481815481106103b457600080fd5b90600052602060002090600202016000915090508060000154908060010180546103dd90610926565b80601f016020809104026020016040519081016040528092919081815260200182805461040990610926565b80156104565780601f1061042b57610100808354040283529160200191610456565b820191906000526020600020905b81548152906001019060200180831161043957829003601f168201915b5050505050905082565b50565b82805461046f90610926565b90600052602060002090601f01602090048101928261049157600085556104d8565b82601f106104aa57805160ff19168380011785556104d8565b828001600101855582156104d8579182015b828111156104d75782518255916020019190600101906104bc565b5b5090506104e591906104e9565b5090565b5b808211156105025760008160009055506001016104ea565b5090565b6000604051905090565b600080fd5b600080fd5b600080fd5b600080fd5b600080fd5b60008083601f84011261053f5761053e61051a565b5b8235905067ffffffffffffffff81111561055c5761055b61051f565b5b60208301915083600182028301111561057857610577610524565b5b9250929050565b6000819050919050565b6105928161057f565b811461059d57600080fd5b50565b6000813590506105af81610589565b92915050565b6000806000604084860312156105ce576105cd610510565b5b600084013567ffffffffffffffff8111156105ec576105eb610515565b5b6105f886828701610529565b9350935050602061060b868287016105a0565b9150509250925092565b61061e8161057f565b82525050565b60006020820190506106396000830184610615565b92915050565b60006020828403121561065557610654610510565b5b6000610663848285016105a0565b91505092915050565b600081519050919050565b600082825260208201905092915050565b60005b838110156106a657808201518184015260208101905061068b565b838111156106b5576000848401525b50505050565b6000601f19601f8301169050919050565b60006106d78261066c565b6106e18185610677565b93506106f1818560208601610688565b6106fa816106bb565b840191505092915050565b600060408201905061071a6000830185610615565b818103602083015261072c81846106cc565b90509392505050565b600080fd5b7f4e487b7100000000000000000000000000000000000000000000000000000000600052604160045260246000fd5b610772826106bb565b810181811067ffffffffffffffff821117156107915761079061073a565b5b80604052505050565b60006107a4610506565b90506107b08282610769565b919050565b600067ffffffffffffffff8211156107d0576107cf61073a565b5b6107d9826106bb565b9050602081019050919050565b82818337600083830152505050565b6000610808610803846107b5565b61079a565b90508281526020810184848401111561082457610823610735565b5b61082f8482856107e6565b509392505050565b600082601f83011261084c5761084b61051a565b5b813561085c8482602086016107f5565b91505092915050565b60006020828403121561087b5761087a610510565b5b600082013567ffffffffffffffff81111561089957610898610515565b5b6108a584828501610837565b91505092915050565b600081905092915050565b60006108c583856108ae565b93506108d28385846107e6565b82840190509392505050565b60006108eb8284866108b9565b91508190509392505050565b7f4e487b7100000000000000000000000000000000000000000000000000000000600052602260045260246000fd5b6000600282049050600182168061093e57607f821691505b602082108103610951576109506108f7565b5b5091905056fea2646970667358221220da7c5901d0fb69177b9c6e73c46e87cdbd2f62058d64c223ec0a1aa0144dc20864736f6c634300080d0033",
  "linkReferences": {},
  "deployedLinkReferences": {}
}